{
  "_format": "hh-sol-artifact-1",
  "contractName": "BadRNG",
  "sourceName": "contracts/BadRNG.sol",
  "abi": [
    {
      "inputs": [],
      "name": "enterRaffle",
      "outputs": [],
      "stateMutability": "payable",
      "type": "function"
    },
    {
      "inputs": [],
      "name": "pickWinner",
      "outputs": [],
      "stateMutability": "nonpayable",
      "type": "function"
    }
  ],
  "bytecode": "0x608060405234801561001057600080fd5b50610455806100206000396000f3fe6080604052600436106100295760003560e01c80632cfcc5391461002e5780635d495aea14610038575b600080fd5b61003661004f565b005b34801561004457600080fd5b5061004d6100c9565b005b678ac7230489e8000034101561006457600080fd5b6000339080600181540180825580915050600190039060005260206000200160009091909190916101000a81548173ffffffffffffffffffffffffffffffffffffffff021916908373ffffffffffffffffffffffffffffffffffffffff160217905550565b600044336040516020016100de929190610285565b6040516020818303038152906040528051906020012060001c90506000806000805490508361010d9190610357565b8154811061011e5761011d6103b7565b5b9060005260206000200160009054906101000a900473ffffffffffffffffffffffffffffffffffffffff16905060008173ffffffffffffffffffffffffffffffffffffffff164760405161017190610270565b60006040518083038185875af1925050503d80600081146101ae576040519150601f19603f3d011682016040523d82523d6000602084013e6101b3565b606091505b50509050806101f7576040517f08c379a00000000000000000000000000000000000000000000000000000000081526004016101ee906102b1565b60405180910390fd5b505050565b61020d610208826102ed565b610329565b82525050565b6000610220600f836102dc565b915061022b826103f3565b602082019050919050565b60006102436000836102d1565b915061024e8261041c565b600082019050919050565b61026a6102658261031f565b61034d565b82525050565b600061027b82610236565b9150819050919050565b60006102918285610259565b6020820191506102a182846101fc565b6014820191508190509392505050565b600060208201905081810360008301526102ca81610213565b9050919050565b600081905092915050565b600082825260208201905092915050565b60006102f8826102ff565b9050919050565b600073ffffffffffffffffffffffffffffffffffffffff82169050919050565b6000819050919050565b60006103348261033b565b9050919050565b6000610346826103e6565b9050919050565b6000819050919050565b60006103628261031f565b915061036d8361031f565b92508261037d5761037c610388565b5b828206905092915050565b7f4e487b7100000000000000000000000000000000000000000000000000000000600052601260045260246000fd5b7f4e487b7100000000000000000000000000000000000000000000000000000000600052603260045260246000fd5b60008160601b9050919050565b7f5472616e73666572206661696c65640000000000000000000000000000000000600082015250565b5056fea2646970667358221220a12af0e0db57e17f21f105f51c5216823a931be0100f59604d0e0c951cd4424b64736f6c63430008070033",
  "linkReferences": {},
  "deployedLinkReferences": {}
}