{"contracts/test/fuzzing/VaultFuzzTest.sol":{"VaultFuzzTest":{"abi":[{"inputs":[],"stateMutability":"nonpayable","type":"constructor"},{"inputs":[],"name":"echidna_test_find_password","outputs":[{"internalType":"bool","name":"","type":"bool"}],"stateMutability":"view","type":"function"},{"inputs":[],"name":"s_locked","outputs":[{"internalType":"bool","name":"","type":"bool"}],"stateMutability":"view","type":"function"},{"inputs":[{"internalType":"bytes32","name":"password","type":"bytes32"}],"name":"unlock","outputs":[],"stateMutability":"nonpayable","type":"function"}],"devdoc":{"kind":"dev","methods":{},"version":1},"evm":{"bytecode":{"linkReferences":{},"object":"608060405234801561001057600080fd5b507f313233617364313233000000000000000000000000000000000000000000000060016000806101000a81548160ff02191690831515021790555080600181905550506101c7806100636000396000f3fe608060405234801561001057600080fd5b50600436106100415760003560e01c8063b543782614610046578063cd82ce0514610064578063ec9b5b3a14610082575b600080fd5b61004e61009e565b60405161005b9190610144565b60405180910390f35b61006c6100af565b6040516100799190610144565b60405180910390f35b61009c60048036038101906100979190610108565b6100cb565b005b60008054906101000a900460ff1681565b60006001151560008054906101000a900460ff16151514905090565b8060015414156100f05760008060006101000a81548160ff0219169083151502179055505b50565b6000813590506101028161017a565b92915050565b60006020828403121561011e5761011d610175565b5b600061012c848285016100f3565b91505092915050565b61013e8161015f565b82525050565b60006020820190506101596000830184610135565b92915050565b60008115159050919050565b6000819050919050565b600080fd5b6101838161016b565b811461018e57600080fd5b5056fea26469706673582212203bb26528e15ab663deb56777751a1107da16a8686f359edfda908931a799b10764736f6c63430008070033","opcodes":"PUSH1 0x80 PUSH1 0x40 MSTORE CALLVALUE DUP1 ISZERO PUSH2 0x10 JUMPI PUSH1 0x0 DUP1 REVERT JUMPDEST POP PUSH32 0x3132336173643132330000000000000000000000000000000000000000000000 PUSH1 0x1 PUSH1 0x0 DUP1 PUSH2 0x100 EXP DUP2 SLOAD DUP2 PUSH1 0xFF MUL NOT AND SWAP1 DUP4 ISZERO ISZERO MUL OR SWAP1 SSTORE POP DUP1 PUSH1 0x1 DUP2 SWAP1 SSTORE POP POP PUSH2 0x1C7 DUP1 PUSH2 0x63 PUSH1 0x0 CODECOPY PUSH1 0x0 RETURN INVALID PUSH1 0x80 PUSH1 0x40 MSTORE CALLVALUE DUP1 ISZERO PUSH2 0x10 JUMPI PUSH1 0x0 DUP1 REVERT JUMPDEST POP PUSH1 0x4 CALLDATASIZE LT PUSH2 0x41 JUMPI PUSH1 0x0 CALLDATALOAD PUSH1 0xE0 SHR DUP1 PUSH4 0xB5437826 EQ PUSH2 0x46 JUMPI DUP1 PUSH4 0xCD82CE05 EQ PUSH2 0x64 JUMPI DUP1 PUSH4 0xEC9B5B3A EQ PUSH2 0x82 JUMPI JUMPDEST PUSH1 0x0 DUP1 REVERT JUMPDEST PUSH2 0x4E PUSH2 0x9E JUMP JUMPDEST PUSH1 0x40 MLOAD PUSH2 0x5B SWAP2 SWAP1 PUSH2 0x144 JUMP JUMPDEST PUSH1 0x40 MLOAD DUP1 SWAP2 SUB SWAP1 RETURN JUMPDEST PUSH2 0x6C PUSH2 0xAF JUMP JUMPDEST PUSH1 0x40 MLOAD PUSH2 0x79 SWAP2 SWAP1 PUSH2 0x144 JUMP JUMPDEST PUSH1 0x40 MLOAD DUP1 SWAP2 SUB SWAP1 RETURN JUMPDEST PUSH2 0x9C PUSH1 0x4 DUP1 CALLDATASIZE SUB DUP2 ADD SWAP1 PUSH2 0x97 SWAP2 SWAP1 PUSH2 0x108 JUMP JUMPDEST PUSH2 0xCB JUMP JUMPDEST STOP JUMPDEST PUSH1 0x0 DUP1 SLOAD SWAP1 PUSH2 0x100 EXP SWAP1 DIV PUSH1 0xFF AND DUP2 JUMP JUMPDEST PUSH1 0x0 PUSH1 0x1 ISZERO ISZERO PUSH1 0x0 DUP1 SLOAD SWAP1 PUSH2 0x100 EXP SWAP1 DIV PUSH1 0xFF AND ISZERO ISZERO EQ SWAP1 POP SWAP1 JUMP JUMPDEST DUP1 PUSH1 0x1 SLOAD EQ ISZERO PUSH2 0xF0 JUMPI PUSH1 0x0 DUP1 PUSH1 0x0 PUSH2 0x100 EXP DUP2 SLOAD DUP2 PUSH1 0xFF MUL NOT AND SWAP1 DUP4 ISZERO ISZERO MUL OR SWAP1 SSTORE POP JUMPDEST POP JUMP JUMPDEST PUSH1 0x0 DUP2 CALLDATALOAD SWAP1 POP PUSH2 0x102 DUP2 PUSH2 0x17A JUMP JUMPDEST SWAP3 SWAP2 POP POP JUMP JUMPDEST PUSH1 0x0 PUSH1 0x20 DUP3 DUP5 SUB SLT ISZERO PUSH2 0x11E JUMPI PUSH2 0x11D PUSH2 0x175 JUMP JUMPDEST JUMPDEST PUSH1 0x0 PUSH2 0x12C DUP5 DUP3 DUP6 ADD PUSH2 0xF3 JUMP JUMPDEST SWAP2 POP POP SWAP3 SWAP2 POP POP JUMP JUMPDEST PUSH2 0x13E DUP2 PUSH2 0x15F JUMP JUMPDEST DUP3 MSTORE POP POP JUMP JUMPDEST PUSH1 0x0 PUSH1 0x20 DUP3 ADD SWAP1 POP PUSH2 0x159 PUSH1 0x0 DUP4 ADD DUP5 PUSH2 0x135 JUMP JUMPDEST SWAP3 SWAP2 POP POP JUMP JUMPDEST PUSH1 0x0 DUP2 ISZERO ISZERO SWAP1 POP SWAP2 SWAP1 POP JUMP JUMPDEST PUSH1 0x0 DUP2 SWAP1 POP SWAP2 SWAP1 POP JUMP JUMPDEST PUSH1 0x0 DUP1 REVERT JUMPDEST PUSH2 0x183 DUP2 PUSH2 0x16B JUMP JUMPDEST DUP2 EQ PUSH2 0x18E JUMPI PUSH1 0x0 DUP1 REVERT JUMPDEST POP JUMP INVALID LOG2 PUSH5 0x6970667358 0x22 SLT KECCAK256 EXTCODESIZE 0xB2 PUSH6 0x28E15AB663DE 0xB5 PUSH8 0x77751A1107DA16A8 PUSH9 0x6F359EDFDA908931A7 SWAP10 0xB1 SMOD PUSH5 0x736F6C6343 STOP ADDMOD SMOD STOP CALLER "},"gasEstimates":{"creation":{"codeDepositCost":"91000","executionCost":"46527","totalCost":"137527"},"external":{"echidna_test_find_password()":"2494","s_locked()":"2446","unlock(bytes32)":"26821"}},"methodIdentifiers":{"echidna_test_find_password()":"cd82ce05","s_locked()":"b5437826","unlock(bytes32)":"ec9b5b3a"}},"storageLayout":{"storage":[{"astId":2614,"contract":"contracts/test/fuzzing/VaultFuzzTest.sol:VaultFuzzTest","label":"s_locked","offset":0,"slot":"0","type":"t_bool"},{"astId":2616,"contract":"contracts/test/fuzzing/VaultFuzzTest.sol:VaultFuzzTest","label":"s_password","offset":0,"slot":"1","type":"t_bytes32"}],"types":{"t_bool":{"encoding":"inplace","label":"bool","numberOfBytes":"1"},"t_bytes32":{"encoding":"inplace","label":"bytes32","numberOfBytes":"32"}}},"userdoc":{"kind":"user","methods":{},"version":1}}}}