{
  "_format": "hh-sol-artifact-1",
  "contractName": "VaultFuzzTest",
  "sourceName": "contracts/test/fuzzing/VaultFuzzTest.sol",
  "abi": [
    {
      "inputs": [],
      "stateMutability": "nonpayable",
      "type": "constructor"
    },
    {
      "inputs": [],
      "name": "echidna_test_find_password",
      "outputs": [
        {
          "internalType": "bool",
          "name": "",
          "type": "bool"
        }
      ],
      "stateMutability": "view",
      "type": "function"
    },
    {
      "inputs": [],
      "name": "s_locked",
      "outputs": [
        {
          "internalType": "bool",
          "name": "",
          "type": "bool"
        }
      ],
      "stateMutability": "view",
      "type": "function"
    },
    {
      "inputs": [
        {
          "internalType": "bytes32",
          "name": "password",
          "type": "bytes32"
        }
      ],
      "name": "unlock",
      "outputs": [],
      "stateMutability": "nonpayable",
      "type": "function"
    }
  ],
  "bytecode": "0x608060405234801561001057600080fd5b507f313233617364313233000000000000000000000000000000000000000000000060016000806101000a81548160ff02191690831515021790555080600181905550506101c7806100636000396000f3fe608060405234801561001057600080fd5b50600436106100415760003560e01c8063b543782614610046578063cd82ce0514610064578063ec9b5b3a14610082575b600080fd5b61004e61009e565b60405161005b9190610144565b60405180910390f35b61006c6100af565b6040516100799190610144565b60405180910390f35b61009c60048036038101906100979190610108565b6100cb565b005b60008054906101000a900460ff1681565b60006001151560008054906101000a900460ff16151514905090565b8060015414156100f05760008060006101000a81548160ff0219169083151502179055505b50565b6000813590506101028161017a565b92915050565b60006020828403121561011e5761011d610175565b5b600061012c848285016100f3565b91505092915050565b61013e8161015f565b82525050565b60006020820190506101596000830184610135565b92915050565b60008115159050919050565b6000819050919050565b600080fd5b6101838161016b565b811461018e57600080fd5b5056fea26469706673582212203bb26528e15ab663deb56777751a1107da16a8686f359edfda908931a799b10764736f6c63430008070033",
  "linkReferences": {},
  "deployedLinkReferences": {}
}