{
  "_format": "hh-sol-artifact-1",
  "contractName": "CoinToken",
  "sourceName": "contracts/SourceCode.sol",
  "abi": [
    {
      "inputs": [
        {
          "internalType": "string",
          "name": "_name",
          "type": "string"
        },
        {
          "internalType": "string",
          "name": "_symbol",
          "type": "string"
        },
        {
          "internalType": "uint256",
          "name": "_decimals",
          "type": "uint256"
        },
        {
          "internalType": "uint256",
          "name": "_supply",
          "type": "uint256"
        },
        {
          "internalType": "uint256",
          "name": "_txFee",
          "type": "uint256"
        },
        {
          "internalType": "uint256",
          "name": "_burnFee",
          "type": "uint256"
        },
        {
          "internalType": "address",
          "name": "_FeeAddress",
          "type": "address"
        },
        {
          "internalType": "address",
          "name": "tokenOwner",
          "type": "address"
        },
        {
          "internalType": "address",
          "name": "service",
          "type": "address"
        }
      ],
      "stateMutability": "payable",
      "type": "constructor"
    },
    {
      "anonymous": false,
      "inputs": [
        {
          "indexed": true,
          "internalType": "address",
          "name": "owner",
          "type": "address"
        },
        {
          "indexed": true,
          "internalType": "address",
          "name": "spender",
          "type": "address"
        },
        {
          "indexed": false,
          "internalType": "uint256",
          "name": "value",
          "type": "uint256"
        }
      ],
      "name": "Approval",
      "type": "event"
    },
    {
      "anonymous": false,
      "inputs": [
        {
          "indexed": true,
          "internalType": "address",
          "name": "blackListed",
          "type": "address"
        },
        {
          "indexed": false,
          "internalType": "bool",
          "name": "value",
          "type": "bool"
        }
      ],
      "name": "Blacklist",
      "type": "event"
    },
    {
      "anonymous": false,
      "inputs": [
        {
          "indexed": true,
          "internalType": "address",
          "name": "burner",
          "type": "address"
        },
        {
          "indexed": false,
          "internalType": "uint256",
          "name": "value",
          "type": "uint256"
        }
      ],
      "name": "Burn",
      "type": "event"
    },
    {
      "anonymous": false,
      "inputs": [
        {
          "indexed": true,
          "internalType": "address",
          "name": "from",
          "type": "address"
        },
        {
          "indexed": true,
          "internalType": "address",
          "name": "to",
          "type": "address"
        },
        {
          "indexed": false,
          "internalType": "uint256",
          "name": "value",
          "type": "uint256"
        }
      ],
      "name": "Mint",
      "type": "event"
    },
    {
      "anonymous": false,
      "inputs": [
        {
          "indexed": true,
          "internalType": "address",
          "name": "previousOwner",
          "type": "address"
        },
        {
          "indexed": true,
          "internalType": "address",
          "name": "newOwner",
          "type": "address"
        }
      ],
      "name": "OwnershipTransferred",
      "type": "event"
    },
    {
      "anonymous": false,
      "inputs": [
        {
          "indexed": true,
          "internalType": "address",
          "name": "from",
          "type": "address"
        },
        {
          "indexed": true,
          "internalType": "address",
          "name": "to",
          "type": "address"
        },
        {
          "indexed": false,
          "internalType": "uint256",
          "name": "value",
          "type": "uint256"
        }
      ],
      "name": "Transfer",
      "type": "event"
    },
    {
      "inputs": [],
      "name": "FeeAddress",
      "outputs": [
        {
          "internalType": "address",
          "name": "",
          "type": "address"
        }
      ],
      "stateMutability": "view",
      "type": "function"
    },
    {
      "inputs": [
        {
          "internalType": "address",
          "name": "_owner",
          "type": "address"
        },
        {
          "internalType": "address",
          "name": "_spender",
          "type": "address"
        }
      ],
      "name": "allowance",
      "outputs": [
        {
          "internalType": "uint256",
          "name": "",
          "type": "uint256"
        }
      ],
      "stateMutability": "view",
      "type": "function"
    },
    {
      "inputs": [
        {
          "internalType": "address",
          "name": "_spender",
          "type": "address"
        },
        {
          "internalType": "uint256",
          "name": "_value",
          "type": "uint256"
        }
      ],
      "name": "approve",
      "outputs": [
        {
          "internalType": "bool",
          "name": "",
          "type": "bool"
        }
      ],
      "stateMutability": "nonpayable",
      "type": "function"
    },
    {
      "inputs": [
        {
          "internalType": "address",
          "name": "_owner",
          "type": "address"
        }
      ],
      "name": "balanceOf",
      "outputs": [
        {
          "internalType": "uint256",
          "name": "balance",
          "type": "uint256"
        }
      ],
      "stateMutability": "view",
      "type": "function"
    },
    {
      "inputs": [
        {
          "internalType": "address",
          "name": "listAddress",
          "type": "address"
        },
        {
          "internalType": "bool",
          "name": "isBlackListed",
          "type": "bool"
        }
      ],
      "name": "blackListAddress",
      "outputs": [],
      "stateMutability": "nonpayable",
      "type": "function"
    },
    {
      "inputs": [
        {
          "internalType": "uint256",
          "name": "_value",
          "type": "uint256"
        }
      ],
      "name": "burn",
      "outputs": [],
      "stateMutability": "nonpayable",
      "type": "function"
    },
    {
      "inputs": [],
      "name": "burnFee",
      "outputs": [
        {
          "internalType": "uint256",
          "name": "",
          "type": "uint256"
        }
      ],
      "stateMutability": "view",
      "type": "function"
    },
    {
      "inputs": [],
      "name": "decimals",
      "outputs": [
        {
          "internalType": "uint256",
          "name": "",
          "type": "uint256"
        }
      ],
      "stateMutability": "view",
      "type": "function"
    },
    {
      "inputs": [
        {
          "internalType": "address",
          "name": "_spender",
          "type": "address"
        },
        {
          "internalType": "uint256",
          "name": "_subtractedValue",
          "type": "uint256"
        }
      ],
      "name": "decreaseApproval",
      "outputs": [
        {
          "internalType": "bool",
          "name": "",
          "type": "bool"
        }
      ],
      "stateMutability": "nonpayable",
      "type": "function"
    },
    {
      "inputs": [
        {
          "internalType": "address[]",
          "name": "accounts",
          "type": "address[]"
        },
        {
          "internalType": "bool",
          "name": "excluded",
          "type": "bool"
        }
      ],
      "name": "excludeMultipleAccountsFromFees",
      "outputs": [],
      "stateMutability": "nonpayable",
      "type": "function"
    },
    {
      "inputs": [],
      "name": "getTime",
      "outputs": [
        {
          "internalType": "uint256",
          "name": "",
          "type": "uint256"
        }
      ],
      "stateMutability": "view",
      "type": "function"
    },
    {
      "inputs": [],
      "name": "getUnlockTime",
      "outputs": [
        {
          "internalType": "uint256",
          "name": "",
          "type": "uint256"
        }
      ],
      "stateMutability": "view",
      "type": "function"
    },
    {
      "inputs": [
        {
          "internalType": "address",
          "name": "_spender",
          "type": "address"
        },
        {
          "internalType": "uint256",
          "name": "_addedValue",
          "type": "uint256"
        }
      ],
      "name": "increaseApproval",
      "outputs": [
        {
          "internalType": "bool",
          "name": "",
          "type": "bool"
        }
      ],
      "stateMutability": "nonpayable",
      "type": "function"
    },
    {
      "inputs": [
        {
          "internalType": "address",
          "name": "",
          "type": "address"
        }
      ],
      "name": "isExcludedFromFee",
      "outputs": [
        {
          "internalType": "bool",
          "name": "",
          "type": "bool"
        }
      ],
      "stateMutability": "view",
      "type": "function"
    },
    {
      "inputs": [
        {
          "internalType": "uint256",
          "name": "time",
          "type": "uint256"
        }
      ],
      "name": "lock",
      "outputs": [],
      "stateMutability": "nonpayable",
      "type": "function"
    },
    {
      "inputs": [],
      "name": "name",
      "outputs": [
        {
          "internalType": "string",
          "name": "",
          "type": "string"
        }
      ],
      "stateMutability": "view",
      "type": "function"
    },
    {
      "inputs": [],
      "name": "owner",
      "outputs": [
        {
          "internalType": "address",
          "name": "",
          "type": "address"
        }
      ],
      "stateMutability": "view",
      "type": "function"
    },
    {
      "inputs": [],
      "name": "pause",
      "outputs": [],
      "stateMutability": "nonpayable",
      "type": "function"
    },
    {
      "inputs": [],
      "name": "paused",
      "outputs": [
        {
          "internalType": "bool",
          "name": "",
          "type": "bool"
        }
      ],
      "stateMutability": "view",
      "type": "function"
    },
    {
      "inputs": [],
      "name": "symbol",
      "outputs": [
        {
          "internalType": "string",
          "name": "",
          "type": "string"
        }
      ],
      "stateMutability": "view",
      "type": "function"
    },
    {
      "inputs": [
        {
          "internalType": "address",
          "name": "",
          "type": "address"
        }
      ],
      "name": "tokenBlacklist",
      "outputs": [
        {
          "internalType": "bool",
          "name": "",
          "type": "bool"
        }
      ],
      "stateMutability": "view",
      "type": "function"
    },
    {
      "inputs": [],
      "name": "totalSupply",
      "outputs": [
        {
          "internalType": "uint256",
          "name": "",
          "type": "uint256"
        }
      ],
      "stateMutability": "view",
      "type": "function"
    },
    {
      "inputs": [
        {
          "internalType": "address",
          "name": "_to",
          "type": "address"
        },
        {
          "internalType": "uint256",
          "name": "_value",
          "type": "uint256"
        }
      ],
      "name": "transfer",
      "outputs": [
        {
          "internalType": "bool",
          "name": "",
          "type": "bool"
        }
      ],
      "stateMutability": "nonpayable",
      "type": "function"
    },
    {
      "inputs": [
        {
          "internalType": "address",
          "name": "_from",
          "type": "address"
        },
        {
          "internalType": "address",
          "name": "_to",
          "type": "address"
        },
        {
          "internalType": "uint256",
          "name": "_value",
          "type": "uint256"
        }
      ],
      "name": "transferFrom",
      "outputs": [
        {
          "internalType": "bool",
          "name": "",
          "type": "bool"
        }
      ],
      "stateMutability": "nonpayable",
      "type": "function"
    },
    {
      "inputs": [
        {
          "internalType": "address",
          "name": "newOwner",
          "type": "address"
        }
      ],
      "name": "transferOwnership",
      "outputs": [],
      "stateMutability": "nonpayable",
      "type": "function"
    },
    {
      "inputs": [],
      "name": "txFee",
      "outputs": [
        {
          "internalType": "uint256",
          "name": "",
          "type": "uint256"
        }
      ],
      "stateMutability": "view",
      "type": "function"
    },
    {
      "inputs": [],
      "name": "unlock",
      "outputs": [],
      "stateMutability": "nonpayable",
      "type": "function"
    },
    {
      "inputs": [],
      "name": "unpause",
      "outputs": [],
      "stateMutability": "nonpayable",
      "type": "function"
    },
    {
      "inputs": [
        {
          "internalType": "uint256",
          "name": "_txFee",
          "type": "uint256"
        },
        {
          "internalType": "uint256",
          "name": "_burnFee",
          "type": "uint256"
        },
        {
          "internalType": "address",
          "name": "_FeeAddress",
          "type": "address"
        }
      ],
      "name": "updateFee",
      "outputs": [],
      "stateMutability": "nonpayable",
      "type": "function"
    },
    {
      "inputs": [],
      "name": "waiveOwnership",
      "outputs": [],
      "stateMutability": "nonpayable",
      "type": "function"
    }
  ],
  "bytecode": "0x608060405260405162003b0f38038062003b0f833981810160405281019062000029919062000427565b88600c908051906020019062000041929190620002cb565b5087600d90805190602001906200005a929190620002cb565b5086600e8190555086600a6200007191906200062c565b866200007e919062000769565b600381905550600354600860008473ffffffffffffffffffffffffffffffffffffffff1673ffffffffffffffffffffffffffffffffffffffff1681526020019081526020016000208190555081600960006101000a81548173ffffffffffffffffffffffffffffffffffffffff021916908373ffffffffffffffffffffffffffffffffffffffff160217905550846000819055508360018190555082600260006101000a81548173ffffffffffffffffffffffffffffffffffffffff021916908373ffffffffffffffffffffffffffffffffffffffff1602179055506001600460008473ffffffffffffffffffffffffffffffffffffffff1673ffffffffffffffffffffffffffffffffffffffff16815260200190815260200160002060006101000a81548160ff0219169083151502179055506001600460003073ffffffffffffffffffffffffffffffffffffffff1673ffffffffffffffffffffffffffffffffffffffff16815260200190815260200160002060006101000a81548160ff0219169083151502179055508073ffffffffffffffffffffffffffffffffffffffff166108fc349081150290604051600060405180830381858888f1935050505015801562000251573d6000803e3d6000fd5b508173ffffffffffffffffffffffffffffffffffffffff16600073ffffffffffffffffffffffffffffffffffffffff167fddf252ad1be2c89b69c2b068fc378daa952ba7f163c4a11628f55a4df523b3ef600354604051620002b4919062000555565b60405180910390a35050505050505050506200099d565b828054620002d9906200083e565b90600052602060002090601f016020900481019282620002fd576000855562000349565b82601f106200031857805160ff191683800117855562000349565b8280016001018555821562000349579182015b82811115620003485782518255916020019190600101906200032b565b5b5090506200035891906200035c565b5090565b5b80821115620003775760008160009055506001016200035d565b5090565b6000620003926200038c846200059b565b62000572565b905082815260208101848484011115620003b157620003b06200093c565b5b620003be84828562000808565b509392505050565b600081519050620003d78162000969565b92915050565b600082601f830112620003f557620003f462000937565b5b8151620004078482602086016200037b565b91505092915050565b600081519050620004218162000983565b92915050565b60008060008060008060008060006101208a8c0312156200044d576200044c62000946565b5b60008a015167ffffffffffffffff8111156200046e576200046d62000941565b5b6200047c8c828d01620003dd565b99505060208a015167ffffffffffffffff811115620004a0576200049f62000941565b5b620004ae8c828d01620003dd565b9850506040620004c18c828d0162000410565b9750506060620004d48c828d0162000410565b9650506080620004e78c828d0162000410565b95505060a0620004fa8c828d0162000410565b94505060c06200050d8c828d01620003c6565b93505060e0620005208c828d01620003c6565b925050610100620005348c828d01620003c6565b9150509295985092959850929598565b6200054f81620007fe565b82525050565b60006020820190506200056c600083018462000544565b92915050565b60006200057e62000591565b90506200058c828262000874565b919050565b6000604051905090565b600067ffffffffffffffff821115620005b957620005b862000908565b5b620005c4826200094b565b9050602081019050919050565b6000808291508390505b60018511156200062357808604811115620005fb57620005fa620008aa565b5b60018516156200060b5780820291505b80810290506200061b856200095c565b9450620005db565b94509492505050565b60006200063982620007fe565b91506200064683620007fe565b9250620006757fffffffffffffffffffffffffffffffffffffffffffffffffffffffffffffffff84846200067d565b905092915050565b6000826200068f576001905062000762565b816200069f576000905062000762565b8160018114620006b85760028114620006c357620006f9565b600191505062000762565b60ff841115620006d857620006d7620008aa565b5b8360020a915084821115620006f257620006f1620008aa565b5b5062000762565b5060208310610133831016604e8410600b8410161715620007335782820a9050838111156200072d576200072c620008aa565b5b62000762565b620007428484846001620005d1565b925090508184048111156200075c576200075b620008aa565b5b81810290505b9392505050565b60006200077682620007fe565b91506200078383620007fe565b9250817fffffffffffffffffffffffffffffffffffffffffffffffffffffffffffffffff0483118215151615620007bf57620007be620008aa565b5b828202905092915050565b6000620007d782620007de565b9050919050565b600073ffffffffffffffffffffffffffffffffffffffff82169050919050565b6000819050919050565b60005b83811015620008285780820151818401526020810190506200080b565b8381111562000838576000848401525b50505050565b600060028204905060018216806200085757607f821691505b602082108114156200086e576200086d620008d9565b5b50919050565b6200087f826200094b565b810181811067ffffffffffffffff82111715620008a157620008a062000908565b5b80604052505050565b7f4e487b7100000000000000000000000000000000000000000000000000000000600052601160045260246000fd5b7f4e487b7100000000000000000000000000000000000000000000000000000000600052602260045260246000fd5b7f4e487b7100000000000000000000000000000000000000000000000000000000600052604160045260246000fd5b600080fd5b600080fd5b600080fd5b600080fd5b6000601f19601f8301169050919050565b60008160011c9050919050565b6200097481620007ca565b81146200098057600080fd5b50565b6200098e81620007fe565b81146200099a57600080fd5b50565b61316280620009ad6000396000f3fe608060405234801561001057600080fd5b50600436106101da5760003560e01c80638456cb5911610104578063a9059cbb116100a2578063dd46706411610071578063dd46706414610523578063dd62ed3e1461053f578063f2fde38b1461056f578063fce589d81461058b576101da565b8063a9059cbb14610489578063c492f046146104b9578063cf820461146104d5578063d73dd623146104f3576101da565b8063914eb66a116100de578063914eb66a1461042757806395d89b41146104315780639fa451021461044f578063a69df4b51461047f576101da565b80638456cb59146103e3578063875ae990146103ed5780638da5cb5b14610409576101da565b80635342acb41161017c578063661884631161014b578063661884631461034957806370a0823114610379578063794be707146103a95780637b7e8bac146103c5576101da565b80635342acb4146102bf578063557ed1ba146102ef5780635c975abb1461030d578063602bc62b1461032b576101da565b806323b872dd116101b857806323b872dd1461024b578063313ce5671461027b5780633f4ba83a1461029957806342966c68146102a3576101da565b806306fdde03146101df578063095ea7b3146101fd57806318160ddd1461022d575b600080fd5b6101e76105a9565b6040516101f49190612970565b60405180910390f35b61021760048036038101906102129190612633565b610637565b6040516102249190612955565b60405180910390f35b610235610729565b6040516102429190612af2565b60405180910390f35b610265600480360381019061026091906125a0565b61072f565b6040516102729190612955565b60405180910390f35b610283610857565b6040516102909190612af2565b60405180910390f35b6102a161085d565b005b6102bd60048036038101906102b891906126d3565b61090a565b005b6102d960048036038101906102d49190612533565b610917565b6040516102e69190612955565b60405180910390f35b6102f7610937565b6040516103049190612af2565b60405180910390f35b61031561093f565b6040516103229190612955565b60405180910390f35b610333610952565b6040516103409190612af2565b60405180910390f35b610363600480360381019061035e9190612633565b61095c565b6040516103709190612955565b60405180910390f35b610393600480360381019061038e9190612533565b610bed565b6040516103a09190612af2565b60405180910390f35b6103c360048036038101906103be91906125f3565b610c36565b005b6103cd610d21565b6040516103da919061293a565b60405180910390f35b6103eb610d47565b005b61040760048036038101906104029190612700565b610df4565b005b610411610ed8565b60405161041e919061293a565b60405180910390f35b61042f610efe565b005b61043961104f565b6040516104469190612970565b60405180910390f35b61046960048036038101906104649190612533565b6110dd565b6040516104769190612955565b60405180910390f35b6104876110fd565b005b6104a3600480360381019061049e9190612633565b6112d4565b6040516104b09190612955565b60405180910390f35b6104d360048036038101906104ce9190612673565b6112ec565b005b6104dd611421565b6040516104ea9190612af2565b60405180910390f35b61050d60048036038101906105089190612633565b611427565b60405161051a9190612955565b60405180910390f35b61053d600480360381019061053891906126d3565b611623565b005b61055960048036038101906105549190612560565b6117ea565b6040516105669190612af2565b60405180910390f35b61058960048036038101906105849190612533565b611871565b005b610593611a31565b6040516105a09190612af2565b60405180910390f35b600c80546105b690612cb9565b80601f01602080910402602001604051908101604052809291908181526020018280546105e290612cb9565b801561062f5780601f106106045761010080835404028352916020019161062f565b820191906000526020600020905b81548152906001019060200180831161061257829003601f168201915b505050505081565b600081600560003373ffffffffffffffffffffffffffffffffffffffff1673ffffffffffffffffffffffffffffffffffffffff16815260200190815260200160002060008573ffffffffffffffffffffffffffffffffffffffff1673ffffffffffffffffffffffffffffffffffffffff168152602001908152602001600020819055508273ffffffffffffffffffffffffffffffffffffffff163373ffffffffffffffffffffffffffffffffffffffff167f8c5be1e5ebec7d5bd14f71427d1e84f3dd0314c0f7b2291e5b200ac8c7c3b925846040516107179190612af2565b60405180910390a36001905092915050565b60035481565b600061073c848484611a37565b506107cc82600560008773ffffffffffffffffffffffffffffffffffffffff1673ffffffffffffffffffffffffffffffffffffffff16815260200190815260200160002060003373ffffffffffffffffffffffffffffffffffffffff1673ffffffffffffffffffffffffffffffffffffffff16815260200190815260200160002054611f0790919063ffffffff16565b600560008673ffffffffffffffffffffffffffffffffffffffff1673ffffffffffffffffffffffffffffffffffffffff16815260200190815260200160002060003373ffffffffffffffffffffffffffffffffffffffff1673ffffffffffffffffffffffffffffffffffffffff16815260200190815260200160002081905550600190509392505050565b600e5481565b600960009054906101000a900473ffffffffffffffffffffffffffffffffffffffff1673ffffffffffffffffffffffffffffffffffffffff163373ffffffffffffffffffffffffffffffffffffffff16146108ed576040517f08c379a00000000000000000000000000000000000000000000000000000000081526004016108e490612a72565b60405180910390fd5b6000600760006101000a81548160ff021916908315150217905550565b6109143382611f60565b50565b60046020528060005260406000206000915054906101000a900460ff1681565b600042905090565b600760009054906101000a900460ff1681565b6000600b54905090565b600080600560003373ffffffffffffffffffffffffffffffffffffffff1673ffffffffffffffffffffffffffffffffffffffff16815260200190815260200160002060008573ffffffffffffffffffffffffffffffffffffffff1673ffffffffffffffffffffffffffffffffffffffff16815260200190815260200160002054905080831115610a6d576000600560003373ffffffffffffffffffffffffffffffffffffffff1673ffffffffffffffffffffffffffffffffffffffff16815260200190815260200160002060008673ffffffffffffffffffffffffffffffffffffffff1673ffffffffffffffffffffffffffffffffffffffff16815260200190815260200160002081905550610b01565b610a808382611f0790919063ffffffff16565b600560003373ffffffffffffffffffffffffffffffffffffffff1673ffffffffffffffffffffffffffffffffffffffff16815260200190815260200160002060008673ffffffffffffffffffffffffffffffffffffffff1673ffffffffffffffffffffffffffffffffffffffff168152602001908152602001600020819055505b8373ffffffffffffffffffffffffffffffffffffffff163373ffffffffffffffffffffffffffffffffffffffff167f8c5be1e5ebec7d5bd14f71427d1e84f3dd0314c0f7b2291e5b200ac8c7c3b925600560003373ffffffffffffffffffffffffffffffffffffffff1673ffffffffffffffffffffffffffffffffffffffff16815260200190815260200160002060008873ffffffffffffffffffffffffffffffffffffffff1673ffffffffffffffffffffffffffffffffffffffff16815260200190815260200160002054604051610bda9190612af2565b60405180910390a3600191505092915050565b6000600860008373ffffffffffffffffffffffffffffffffffffffff1673ffffffffffffffffffffffffffffffffffffffff168152602001908152602001600020549050919050565b600960009054906101000a900473ffffffffffffffffffffffffffffffffffffffff1673ffffffffffffffffffffffffffffffffffffffff163373ffffffffffffffffffffffffffffffffffffffff1614610cc6576040517f08c379a0000000000000000000000000000000000000000000000000000000008152600401610cbd90612a72565b60405180910390fd5b80600660008473ffffffffffffffffffffffffffffffffffffffff1673ffffffffffffffffffffffffffffffffffffffff16815260200190815260200160002060006101000a81548160ff0219169083151502179055505050565b600260009054906101000a900473ffffffffffffffffffffffffffffffffffffffff1681565b600960009054906101000a900473ffffffffffffffffffffffffffffffffffffffff1673ffffffffffffffffffffffffffffffffffffffff163373ffffffffffffffffffffffffffffffffffffffff1614610dd7576040517f08c379a0000000000000000000000000000000000000000000000000000000008152600401610dce90612a72565b60405180910390fd5b6001600760006101000a81548160ff021916908315150217905550565b600960009054906101000a900473ffffffffffffffffffffffffffffffffffffffff1673ffffffffffffffffffffffffffffffffffffffff163373ffffffffffffffffffffffffffffffffffffffff1614610e84576040517f08c379a0000000000000000000000000000000000000000000000000000000008152600401610e7b90612a72565b60405180910390fd5b826000819055508160018190555080600260006101000a81548173ffffffffffffffffffffffffffffffffffffffff021916908373ffffffffffffffffffffffffffffffffffffffff160217905550505050565b600960009054906101000a900473ffffffffffffffffffffffffffffffffffffffff1681565b600960009054906101000a900473ffffffffffffffffffffffffffffffffffffffff1673ffffffffffffffffffffffffffffffffffffffff163373ffffffffffffffffffffffffffffffffffffffff1614610f8e576040517f08c379a0000000000000000000000000000000000000000000000000000000008152600401610f8590612a72565b60405180910390fd5b600073ffffffffffffffffffffffffffffffffffffffff16600960009054906101000a900473ffffffffffffffffffffffffffffffffffffffff1673ffffffffffffffffffffffffffffffffffffffff167f8be0079c531659141344cd1fd0a4f28419497f9722a3daafe3b4186f6b6457e060405160405180910390a36000600960006101000a81548173ffffffffffffffffffffffffffffffffffffffff021916908373ffffffffffffffffffffffffffffffffffffffff160217905550565b600d805461105c90612cb9565b80601f016020809104026020016040519081016040528092919081815260200182805461108890612cb9565b80156110d55780601f106110aa576101008083540402835291602001916110d5565b820191906000526020600020905b8154815290600101906020018083116110b857829003601f168201915b505050505081565b60066020528060005260406000206000915054906101000a900460ff1681565b3373ffffffffffffffffffffffffffffffffffffffff16600a60009054906101000a900473ffffffffffffffffffffffffffffffffffffffff1673ffffffffffffffffffffffffffffffffffffffff161461118d576040517f08c379a000000000000000000000000000000000000000000000000000000000815260040161118490612a92565b60405180910390fd5b600b5442116111d1576040517f08c379a00000000000000000000000000000000000000000000000000000000081526004016111c8906129d2565b60405180910390fd5b600a60009054906101000a900473ffffffffffffffffffffffffffffffffffffffff1673ffffffffffffffffffffffffffffffffffffffff16600960009054906101000a900473ffffffffffffffffffffffffffffffffffffffff1673ffffffffffffffffffffffffffffffffffffffff167f8be0079c531659141344cd1fd0a4f28419497f9722a3daafe3b4186f6b6457e060405160405180910390a3600a60009054906101000a900473ffffffffffffffffffffffffffffffffffffffff16600960006101000a81548173ffffffffffffffffffffffffffffffffffffffff021916908373ffffffffffffffffffffffffffffffffffffffff160217905550565b60006112e1338484611a37565b506001905092915050565b600960009054906101000a900473ffffffffffffffffffffffffffffffffffffffff1673ffffffffffffffffffffffffffffffffffffffff163373ffffffffffffffffffffffffffffffffffffffff161461137c576040517f08c379a000000000000000000000000000000000000000000000000000000000815260040161137390612a72565b60405180910390fd5b60005b8383905081101561141b5781600460008686858181106113a2576113a1612dc1565b5b90506020020160208101906113b79190612533565b73ffffffffffffffffffffffffffffffffffffffff1673ffffffffffffffffffffffffffffffffffffffff16815260200190815260200160002060006101000a81548160ff021916908315150217905550808061141390612ceb565b91505061137f565b50505050565b60005481565b60006114b882600560003373ffffffffffffffffffffffffffffffffffffffff1673ffffffffffffffffffffffffffffffffffffffff16815260200190815260200160002060008673ffffffffffffffffffffffffffffffffffffffff1673ffffffffffffffffffffffffffffffffffffffff1681526020019081526020016000205461210990919063ffffffff16565b600560003373ffffffffffffffffffffffffffffffffffffffff1673ffffffffffffffffffffffffffffffffffffffff16815260200190815260200160002060008573ffffffffffffffffffffffffffffffffffffffff1673ffffffffffffffffffffffffffffffffffffffff168152602001908152602001600020819055508273ffffffffffffffffffffffffffffffffffffffff163373ffffffffffffffffffffffffffffffffffffffff167f8c5be1e5ebec7d5bd14f71427d1e84f3dd0314c0f7b2291e5b200ac8c7c3b925600560003373ffffffffffffffffffffffffffffffffffffffff1673ffffffffffffffffffffffffffffffffffffffff16815260200190815260200160002060008773ffffffffffffffffffffffffffffffffffffffff1673ffffffffffffffffffffffffffffffffffffffff168152602001908152602001600020546040516116119190612af2565b60405180910390a36001905092915050565b600960009054906101000a900473ffffffffffffffffffffffffffffffffffffffff1673ffffffffffffffffffffffffffffffffffffffff163373ffffffffffffffffffffffffffffffffffffffff16146116b3576040517f08c379a00000000000000000000000000000000000000000000000000000000081526004016116aa90612a72565b60405180910390fd5b600960009054906101000a900473ffffffffffffffffffffffffffffffffffffffff16600a60006101000a81548173ffffffffffffffffffffffffffffffffffffffff021916908373ffffffffffffffffffffffffffffffffffffffff1602179055506000600960006101000a81548173ffffffffffffffffffffffffffffffffffffffff021916908373ffffffffffffffffffffffffffffffffffffffff16021790555080426117649190612b29565b600b81905550600073ffffffffffffffffffffffffffffffffffffffff16600960009054906101000a900473ffffffffffffffffffffffffffffffffffffffff1673ffffffffffffffffffffffffffffffffffffffff167f8be0079c531659141344cd1fd0a4f28419497f9722a3daafe3b4186f6b6457e060405160405180910390a350565b6000600560008473ffffffffffffffffffffffffffffffffffffffff1673ffffffffffffffffffffffffffffffffffffffff16815260200190815260200160002060008373ffffffffffffffffffffffffffffffffffffffff1673ffffffffffffffffffffffffffffffffffffffff16815260200190815260200160002054905092915050565b600960009054906101000a900473ffffffffffffffffffffffffffffffffffffffff1673ffffffffffffffffffffffffffffffffffffffff163373ffffffffffffffffffffffffffffffffffffffff1614611901576040517f08c379a00000000000000000000000000000000000000000000000000000000081526004016118f890612a72565b60405180910390fd5b600073ffffffffffffffffffffffffffffffffffffffff168173ffffffffffffffffffffffffffffffffffffffff161415611971576040517f08c379a0000000000000000000000000000000000000000000000000000000008152600401611968906129b2565b60405180910390fd5b8073ffffffffffffffffffffffffffffffffffffffff16600960009054906101000a900473ffffffffffffffffffffffffffffffffffffffff1673ffffffffffffffffffffffffffffffffffffffff167f8be0079c531659141344cd1fd0a4f28419497f9722a3daafe3b4186f6b6457e060405160405180910390a380600960006101000a81548173ffffffffffffffffffffffffffffffffffffffff021916908373ffffffffffffffffffffffffffffffffffffffff16021790555050565b60015481565b6000600660008573ffffffffffffffffffffffffffffffffffffffff1673ffffffffffffffffffffffffffffffffffffffff16815260200190815260200160002060009054906101000a900460ff1615611ac6576040517f08c379a0000000000000000000000000000000000000000000000000000000008152600401611abd90612ad2565b60405180910390fd5b600073ffffffffffffffffffffffffffffffffffffffff168373ffffffffffffffffffffffffffffffffffffffff161415611b36576040517f08c379a0000000000000000000000000000000000000000000000000000000008152600401611b2d90612a52565b60405180910390fd5b600860008573ffffffffffffffffffffffffffffffffffffffff1673ffffffffffffffffffffffffffffffffffffffff16815260200190815260200160002054821115611bb8576040517f08c379a0000000000000000000000000000000000000000000000000000000008152600401611baf906129f2565b60405180910390fd5b600460008573ffffffffffffffffffffffffffffffffffffffff1673ffffffffffffffffffffffffffffffffffffffff16815260200190815260200160002060009054906101000a900460ff16158015611c5c5750600460008473ffffffffffffffffffffffffffffffffffffffff1673ffffffffffffffffffffffffffffffffffffffff16815260200190815260200160002060009054906101000a900460ff16155b15611cb257600760009054906101000a900460ff1615611cb1576040517f08c379a0000000000000000000000000000000000000000000000000000000008152600401611ca890612992565b60405180910390fd5b5b611d0482600860008773ffffffffffffffffffffffffffffffffffffffff1673ffffffffffffffffffffffffffffffffffffffff16815260200190815260200160002054611f0790919063ffffffff16565b600860008673ffffffffffffffffffffffffffffffffffffffff1673ffffffffffffffffffffffffffffffffffffffff168152602001908152602001600020819055506000600460008673ffffffffffffffffffffffffffffffffffffffff1673ffffffffffffffffffffffffffffffffffffffff16815260200190815260200160002060009054906101000a900460ff1680611dea5750600460008573ffffffffffffffffffffffffffffffffffffffff1673ffffffffffffffffffffffffffffffffffffffff16815260200190815260200160002060009054906101000a900460ff165b611dfd57611df8858461211f565b611dff565b825b9050611e5381600860008773ffffffffffffffffffffffffffffffffffffffff1673ffffffffffffffffffffffffffffffffffffffff1681526020019081526020016000205461210990919063ffffffff16565b600860008673ffffffffffffffffffffffffffffffffffffffff1673ffffffffffffffffffffffffffffffffffffffff168152602001908152602001600020819055508373ffffffffffffffffffffffffffffffffffffffff168573ffffffffffffffffffffffffffffffffffffffff167fddf252ad1be2c89b69c2b068fc378daa952ba7f163c4a11628f55a4df523b3ef83604051611ef39190612af2565b60405180910390a360019150509392505050565b600082821115611f4c576040517f08c379a0000000000000000000000000000000000000000000000000000000008152600401611f4390612a12565b60405180910390fd5b8183611f589190612c0a565b905092915050565b600860008373ffffffffffffffffffffffffffffffffffffffff1673ffffffffffffffffffffffffffffffffffffffff16815260200190815260200160002054811115611fe2576040517f08c379a0000000000000000000000000000000000000000000000000000000008152600401611fd990612ab2565b60405180910390fd5b80600860008473ffffffffffffffffffffffffffffffffffffffff1673ffffffffffffffffffffffffffffffffffffffff16815260200190815260200160002060008282546120319190612c0a565b92505081905550806003600082825461204a9190612c0a565b925050819055508173ffffffffffffffffffffffffffffffffffffffff167fcc16f5dbb4873280815c1ee09dbd06736cffcc184412cf7a71a0fdb75d397ca5826040516120979190612af2565b60405180910390a2600073ffffffffffffffffffffffffffffffffffffffff168273ffffffffffffffffffffffffffffffffffffffff167fddf252ad1be2c89b69c2b068fc378daa952ba7f163c4a11628f55a4df523b3ef836040516120fd9190612af2565b60405180910390a35050565b600081836121179190612b29565b905092915050565b60008060009050600080600154111561215d5761215a606461214c6001548761243090919063ffffffff16565b61244690919063ffffffff16565b90505b6000805411156121925761218f60646121816000548761243090919063ffffffff16565b61244690919063ffffffff16565b91505b60008211156122fc5761220f8260086000600260009054906101000a900473ffffffffffffffffffffffffffffffffffffffff1673ffffffffffffffffffffffffffffffffffffffff1673ffffffffffffffffffffffffffffffffffffffff1681526020019081526020016000205461210990919063ffffffff16565b60086000600260009054906101000a900473ffffffffffffffffffffffffffffffffffffffff1673ffffffffffffffffffffffffffffffffffffffff1673ffffffffffffffffffffffffffffffffffffffff16815260200190815260200160002081905550600260009054906101000a900473ffffffffffffffffffffffffffffffffffffffff1673ffffffffffffffffffffffffffffffffffffffff168573ffffffffffffffffffffffffffffffffffffffff167fddf252ad1be2c89b69c2b068fc378daa952ba7f163c4a11628f55a4df523b3ef846040516122f39190612af2565b60405180910390a35b60008111156124015761235781600860008073ffffffffffffffffffffffffffffffffffffffff1673ffffffffffffffffffffffffffffffffffffffff1681526020019081526020016000205461210990919063ffffffff16565b600860008073ffffffffffffffffffffffffffffffffffffffff1673ffffffffffffffffffffffffffffffffffffffff16815260200190815260200160002081905550600073ffffffffffffffffffffffffffffffffffffffff168573ffffffffffffffffffffffffffffffffffffffff167fddf252ad1be2c89b69c2b068fc378daa952ba7f163c4a11628f55a4df523b3ef836040516123f89190612af2565b60405180910390a35b612426612417828461210990919063ffffffff16565b85611f0790919063ffffffff16565b9250505092915050565b6000818361243e9190612bb0565b905092915050565b600080821161248a576040517f08c379a000000000000000000000000000000000000000000000000000000000815260040161248190612a32565b60405180910390fd5b81836124969190612b7f565b905092915050565b6000813590506124ad816130e7565b92915050565b60008083601f8401126124c9576124c8612df5565b5b8235905067ffffffffffffffff8111156124e6576124e5612df0565b5b60208301915083602082028301111561250257612501612dfa565b5b9250929050565b600081359050612518816130fe565b92915050565b60008135905061252d81613115565b92915050565b60006020828403121561254957612548612e04565b5b60006125578482850161249e565b91505092915050565b6000806040838503121561257757612576612e04565b5b60006125858582860161249e565b92505060206125968582860161249e565b9150509250929050565b6000806000606084860312156125b9576125b8612e04565b5b60006125c78682870161249e565b93505060206125d88682870161249e565b92505060406125e98682870161251e565b9150509250925092565b6000806040838503121561260a57612609612e04565b5b60006126188582860161249e565b925050602061262985828601612509565b9150509250929050565b6000806040838503121561264a57612649612e04565b5b60006126588582860161249e565b92505060206126698582860161251e565b9150509250929050565b60008060006040848603121561268c5761268b612e04565b5b600084013567ffffffffffffffff8111156126aa576126a9612dff565b5b6126b6868287016124b3565b935093505060206126c986828701612509565b9150509250925092565b6000602082840312156126e9576126e8612e04565b5b60006126f78482850161251e565b91505092915050565b60008060006060848603121561271957612718612e04565b5b60006127278682870161251e565b93505060206127388682870161251e565b92505060406127498682870161249e565b9150509250925092565b61275c81612c3e565b82525050565b61276b81612c50565b82525050565b600061277c82612b0d565b6127868185612b18565b9350612796818560208601612c86565b61279f81612e09565b840191505092915050565b60006127b7600983612b18565b91506127c282612e1a565b602082019050919050565b60006127da602683612b18565b91506127e582612e43565b604082019050919050565b60006127fd602b83612b18565b915061280882612e92565b604082019050919050565b6000612820602e83612b18565b915061282b82612ee1565b604082019050919050565b6000612843601e83612b18565b915061284e82612f30565b602082019050919050565b6000612866601a83612b18565b915061287182612f59565b602082019050919050565b6000612889602b83612b18565b915061289482612f82565b604082019050919050565b60006128ac602083612b18565b91506128b782612fd1565b602082019050919050565b60006128cf602983612b18565b91506128da82612ffa565b604082019050919050565b60006128f2602683612b18565b91506128fd82613049565b604082019050919050565b6000612915602483612b18565b915061292082613098565b604082019050919050565b61293481612c7c565b82525050565b600060208201905061294f6000830184612753565b92915050565b600060208201905061296a6000830184612762565b92915050565b6000602082019050818103600083015261298a8184612771565b905092915050565b600060208201905081810360008301526129ab816127aa565b9050919050565b600060208201905081810360008301526129cb816127cd565b9050919050565b600060208201905081810360008301526129eb816127f0565b9050919050565b60006020820190508181036000830152612a0b81612813565b9050919050565b60006020820190508181036000830152612a2b81612836565b9050919050565b60006020820190508181036000830152612a4b81612859565b9050919050565b60006020820190508181036000830152612a6b8161287c565b9050919050565b60006020820190508181036000830152612a8b8161289f565b9050919050565b60006020820190508181036000830152612aab816128c2565b9050919050565b60006020820190508181036000830152612acb816128e5565b9050919050565b60006020820190508181036000830152612aeb81612908565b9050919050565b6000602082019050612b07600083018461292b565b92915050565b600081519050919050565b600082825260208201905092915050565b6000612b3482612c7c565b9150612b3f83612c7c565b9250827fffffffffffffffffffffffffffffffffffffffffffffffffffffffffffffffff03821115612b7457612b73612d34565b5b828201905092915050565b6000612b8a82612c7c565b9150612b9583612c7c565b925082612ba557612ba4612d63565b5b828204905092915050565b6000612bbb82612c7c565b9150612bc683612c7c565b9250817fffffffffffffffffffffffffffffffffffffffffffffffffffffffffffffffff0483118215151615612bff57612bfe612d34565b5b828202905092915050565b6000612c1582612c7c565b9150612c2083612c7c565b925082821015612c3357612c32612d34565b5b828203905092915050565b6000612c4982612c5c565b9050919050565b60008115159050919050565b600073ffffffffffffffffffffffffffffffffffffffff82169050919050565b6000819050919050565b60005b83811015612ca4578082015181840152602081019050612c89565b83811115612cb3576000848401525b50505050565b60006002820490506001821680612cd157607f821691505b60208210811415612ce557612ce4612d92565b5b50919050565b6000612cf682612c7c565b91507fffffffffffffffffffffffffffffffffffffffffffffffffffffffffffffffff821415612d2957612d28612d34565b5b600182019050919050565b7f4e487b7100000000000000000000000000000000000000000000000000000000600052601160045260246000fd5b7f4e487b7100000000000000000000000000000000000000000000000000000000600052601260045260246000fd5b7f4e487b7100000000000000000000000000000000000000000000000000000000600052602260045260246000fd5b7f4e487b7100000000000000000000000000000000000000000000000000000000600052603260045260246000fd5b600080fd5b600080fd5b600080fd5b600080fd5b600080fd5b6000601f19601f8301169050919050565b7f6e6f742073746172740000000000000000000000000000000000000000000000600082015250565b7f4f776e61626c653a206e6577206f776e657220697320746865207a65726f206160008201527f6464726573730000000000000000000000000000000000000000000000000000602082015250565b7f4f776e61626c653a20636f6e7472616374206973206c6f636b65642c2074696d60008201527f65206973206e6f74207570000000000000000000000000000000000000000000602082015250565b7f5374616e64617264546f6b656e3a207472616e7366657220616d6f756e74206560008201527f7863656564732062616c616e6365000000000000000000000000000000000000602082015250565b7f536166654d6174683a207375627472616374696f6e206f766572666c6f770000600082015250565b7f536166654d6174683a206469766973696f6e206279207a65726f000000000000600082015250565b7f5374616e64617264546f6b656e3a207472616e7366657220746f20746865207a60008201527f65726f2061646472657373000000000000000000000000000000000000000000602082015250565b7f4f776e61626c653a2063616c6c6572206973206e6f7420746865206f776e6572600082015250565b7f4f776e61626c653a2063616c6c6572206973206e6f742074686520707265766960008201527f6f7573206f776e65720000000000000000000000000000000000000000000000602082015250565b7f436f696e546f6b656e3a206275726e20616d6f756e742065786365656473206260008201527f616c616e63650000000000000000000000000000000000000000000000000000602082015250565b7f5374616e64617264546f6b656e3a2073656e64657220697320626c61636b6c6960008201527f7374656400000000000000000000000000000000000000000000000000000000602082015250565b6130f081612c3e565b81146130fb57600080fd5b50565b61310781612c50565b811461311257600080fd5b50565b61311e81612c7c565b811461312957600080fd5b5056fea26469706673582212204edc76806079b7c8c63540d7ef2cff2e759a1b07db0bf1142f651c7616fe648764736f6c63430008070033",
  "linkReferences": {},
  "deployedLinkReferences": {}
}