{
  "_format": "hh-sol-artifact-1",
  "contractName": "StandardToken",
  "sourceName": "contracts/SourceCode.sol",
  "abi": [
    {
      "anonymous": false,
      "inputs": [
        {
          "indexed": true,
          "internalType": "address",
          "name": "owner",
          "type": "address"
        },
        {
          "indexed": true,
          "internalType": "address",
          "name": "spender",
          "type": "address"
        },
        {
          "indexed": false,
          "internalType": "uint256",
          "name": "value",
          "type": "uint256"
        }
      ],
      "name": "Approval",
      "type": "event"
    },
    {
      "anonymous": false,
      "inputs": [
        {
          "indexed": true,
          "internalType": "address",
          "name": "blackListed",
          "type": "address"
        },
        {
          "indexed": false,
          "internalType": "bool",
          "name": "value",
          "type": "bool"
        }
      ],
      "name": "Blacklist",
      "type": "event"
    },
    {
      "anonymous": false,
      "inputs": [
        {
          "indexed": true,
          "internalType": "address",
          "name": "from",
          "type": "address"
        },
        {
          "indexed": true,
          "internalType": "address",
          "name": "to",
          "type": "address"
        },
        {
          "indexed": false,
          "internalType": "uint256",
          "name": "value",
          "type": "uint256"
        }
      ],
      "name": "Transfer",
      "type": "event"
    },
    {
      "inputs": [],
      "name": "FeeAddress",
      "outputs": [
        {
          "internalType": "address",
          "name": "",
          "type": "address"
        }
      ],
      "stateMutability": "view",
      "type": "function"
    },
    {
      "inputs": [
        {
          "internalType": "address",
          "name": "_owner",
          "type": "address"
        },
        {
          "internalType": "address",
          "name": "_spender",
          "type": "address"
        }
      ],
      "name": "allowance",
      "outputs": [
        {
          "internalType": "uint256",
          "name": "",
          "type": "uint256"
        }
      ],
      "stateMutability": "view",
      "type": "function"
    },
    {
      "inputs": [
        {
          "internalType": "address",
          "name": "_spender",
          "type": "address"
        },
        {
          "internalType": "uint256",
          "name": "_value",
          "type": "uint256"
        }
      ],
      "name": "approve",
      "outputs": [
        {
          "internalType": "bool",
          "name": "",
          "type": "bool"
        }
      ],
      "stateMutability": "nonpayable",
      "type": "function"
    },
    {
      "inputs": [
        {
          "internalType": "address",
          "name": "_owner",
          "type": "address"
        }
      ],
      "name": "balanceOf",
      "outputs": [
        {
          "internalType": "uint256",
          "name": "balance",
          "type": "uint256"
        }
      ],
      "stateMutability": "view",
      "type": "function"
    },
    {
      "inputs": [],
      "name": "burnFee",
      "outputs": [
        {
          "internalType": "uint256",
          "name": "",
          "type": "uint256"
        }
      ],
      "stateMutability": "view",
      "type": "function"
    },
    {
      "inputs": [
        {
          "internalType": "address",
          "name": "_spender",
          "type": "address"
        },
        {
          "internalType": "uint256",
          "name": "_subtractedValue",
          "type": "uint256"
        }
      ],
      "name": "decreaseApproval",
      "outputs": [
        {
          "internalType": "bool",
          "name": "",
          "type": "bool"
        }
      ],
      "stateMutability": "nonpayable",
      "type": "function"
    },
    {
      "inputs": [
        {
          "internalType": "address",
          "name": "_spender",
          "type": "address"
        },
        {
          "internalType": "uint256",
          "name": "_addedValue",
          "type": "uint256"
        }
      ],
      "name": "increaseApproval",
      "outputs": [
        {
          "internalType": "bool",
          "name": "",
          "type": "bool"
        }
      ],
      "stateMutability": "nonpayable",
      "type": "function"
    },
    {
      "inputs": [
        {
          "internalType": "address",
          "name": "",
          "type": "address"
        }
      ],
      "name": "isExcludedFromFee",
      "outputs": [
        {
          "internalType": "bool",
          "name": "",
          "type": "bool"
        }
      ],
      "stateMutability": "view",
      "type": "function"
    },
    {
      "inputs": [],
      "name": "paused",
      "outputs": [
        {
          "internalType": "bool",
          "name": "",
          "type": "bool"
        }
      ],
      "stateMutability": "view",
      "type": "function"
    },
    {
      "inputs": [
        {
          "internalType": "address",
          "name": "",
          "type": "address"
        }
      ],
      "name": "tokenBlacklist",
      "outputs": [
        {
          "internalType": "bool",
          "name": "",
          "type": "bool"
        }
      ],
      "stateMutability": "view",
      "type": "function"
    },
    {
      "inputs": [],
      "name": "totalSupply",
      "outputs": [
        {
          "internalType": "uint256",
          "name": "",
          "type": "uint256"
        }
      ],
      "stateMutability": "view",
      "type": "function"
    },
    {
      "inputs": [
        {
          "internalType": "address",
          "name": "_to",
          "type": "address"
        },
        {
          "internalType": "uint256",
          "name": "_value",
          "type": "uint256"
        }
      ],
      "name": "transfer",
      "outputs": [
        {
          "internalType": "bool",
          "name": "",
          "type": "bool"
        }
      ],
      "stateMutability": "nonpayable",
      "type": "function"
    },
    {
      "inputs": [
        {
          "internalType": "address",
          "name": "_from",
          "type": "address"
        },
        {
          "internalType": "address",
          "name": "_to",
          "type": "address"
        },
        {
          "internalType": "uint256",
          "name": "_value",
          "type": "uint256"
        }
      ],
      "name": "transferFrom",
      "outputs": [
        {
          "internalType": "bool",
          "name": "",
          "type": "bool"
        }
      ],
      "stateMutability": "nonpayable",
      "type": "function"
    },
    {
      "inputs": [],
      "name": "txFee",
      "outputs": [
        {
          "internalType": "uint256",
          "name": "",
          "type": "uint256"
        }
      ],
      "stateMutability": "view",
      "type": "function"
    }
  ],
  "bytecode": "0x608060405234801561001057600080fd5b50611ae4806100206000396000f3fe608060405234801561001057600080fd5b50600436106100ea5760003560e01c80637b7e8bac1161008c578063cf82046111610066578063cf82046114610299578063d73dd623146102b7578063dd62ed3e146102e7578063fce589d814610317576100ea565b80637b7e8bac1461021b5780639fa4510214610239578063a9059cbb14610269576100ea565b80635342acb4116100c85780635342acb41461016d5780635c975abb1461019d57806366188463146101bb57806370a08231146101eb576100ea565b8063095ea7b3146100ef57806318160ddd1461011f57806323b872dd1461013d575b600080fd5b610109600480360381019061010491906114f7565b610335565b6040516101169190611651565b60405180910390f35b610127610427565b604051610134919061172c565b60405180910390f35b610157600480360381019061015291906114a4565b61042d565b6040516101649190611651565b60405180910390f35b61018760048036038101906101829190611437565b610555565b6040516101949190611651565b60405180910390f35b6101a5610575565b6040516101b29190611651565b60405180910390f35b6101d560048036038101906101d091906114f7565b610588565b6040516101e29190611651565b60405180910390f35b61020560048036038101906102009190611437565b610819565b604051610212919061172c565b60405180910390f35b610223610862565b6040516102309190611636565b60405180910390f35b610253600480360381019061024e9190611437565b610888565b6040516102609190611651565b60405180910390f35b610283600480360381019061027e91906114f7565b6108a8565b6040516102909190611651565b60405180910390f35b6102a16108c0565b6040516102ae919061172c565b60405180910390f35b6102d160048036038101906102cc91906114f7565b6108c6565b6040516102de9190611651565b60405180910390f35b61030160048036038101906102fc9190611464565b610ac2565b60405161030e919061172c565b60405180910390f35b61031f610b49565b60405161032c919061172c565b60405180910390f35b600081600560003373ffffffffffffffffffffffffffffffffffffffff1673ffffffffffffffffffffffffffffffffffffffff16815260200190815260200160002060008573ffffffffffffffffffffffffffffffffffffffff1673ffffffffffffffffffffffffffffffffffffffff168152602001908152602001600020819055508273ffffffffffffffffffffffffffffffffffffffff163373ffffffffffffffffffffffffffffffffffffffff167f8c5be1e5ebec7d5bd14f71427d1e84f3dd0314c0f7b2291e5b200ac8c7c3b92584604051610415919061172c565b60405180910390a36001905092915050565b60035481565b600061043a848484610b4f565b506104ca82600560008773ffffffffffffffffffffffffffffffffffffffff1673ffffffffffffffffffffffffffffffffffffffff16815260200190815260200160002060003373ffffffffffffffffffffffffffffffffffffffff1673ffffffffffffffffffffffffffffffffffffffff1681526020019081526020016000205461101f90919063ffffffff16565b600560008673ffffffffffffffffffffffffffffffffffffffff1673ffffffffffffffffffffffffffffffffffffffff16815260200190815260200160002060003373ffffffffffffffffffffffffffffffffffffffff1673ffffffffffffffffffffffffffffffffffffffff16815260200190815260200160002081905550600190509392505050565b60046020528060005260406000206000915054906101000a900460ff1681565b600760009054906101000a900460ff1681565b600080600560003373ffffffffffffffffffffffffffffffffffffffff1673ffffffffffffffffffffffffffffffffffffffff16815260200190815260200160002060008573ffffffffffffffffffffffffffffffffffffffff1673ffffffffffffffffffffffffffffffffffffffff16815260200190815260200160002054905080831115610699576000600560003373ffffffffffffffffffffffffffffffffffffffff1673ffffffffffffffffffffffffffffffffffffffff16815260200190815260200160002060008673ffffffffffffffffffffffffffffffffffffffff1673ffffffffffffffffffffffffffffffffffffffff1681526020019081526020016000208190555061072d565b6106ac838261101f90919063ffffffff16565b600560003373ffffffffffffffffffffffffffffffffffffffff1673ffffffffffffffffffffffffffffffffffffffff16815260200190815260200160002060008673ffffffffffffffffffffffffffffffffffffffff1673ffffffffffffffffffffffffffffffffffffffff168152602001908152602001600020819055505b8373ffffffffffffffffffffffffffffffffffffffff163373ffffffffffffffffffffffffffffffffffffffff167f8c5be1e5ebec7d5bd14f71427d1e84f3dd0314c0f7b2291e5b200ac8c7c3b925600560003373ffffffffffffffffffffffffffffffffffffffff1673ffffffffffffffffffffffffffffffffffffffff16815260200190815260200160002060008873ffffffffffffffffffffffffffffffffffffffff1673ffffffffffffffffffffffffffffffffffffffff16815260200190815260200160002054604051610806919061172c565b60405180910390a3600191505092915050565b6000600860008373ffffffffffffffffffffffffffffffffffffffff1673ffffffffffffffffffffffffffffffffffffffff168152602001908152602001600020549050919050565b600260009054906101000a900473ffffffffffffffffffffffffffffffffffffffff1681565b60066020528060005260406000206000915054906101000a900460ff1681565b60006108b5338484610b4f565b506001905092915050565b60005481565b600061095782600560003373ffffffffffffffffffffffffffffffffffffffff1673ffffffffffffffffffffffffffffffffffffffff16815260200190815260200160002060008673ffffffffffffffffffffffffffffffffffffffff1673ffffffffffffffffffffffffffffffffffffffff1681526020019081526020016000205461107890919063ffffffff16565b600560003373ffffffffffffffffffffffffffffffffffffffff1673ffffffffffffffffffffffffffffffffffffffff16815260200190815260200160002060008573ffffffffffffffffffffffffffffffffffffffff1673ffffffffffffffffffffffffffffffffffffffff168152602001908152602001600020819055508273ffffffffffffffffffffffffffffffffffffffff163373ffffffffffffffffffffffffffffffffffffffff167f8c5be1e5ebec7d5bd14f71427d1e84f3dd0314c0f7b2291e5b200ac8c7c3b925600560003373ffffffffffffffffffffffffffffffffffffffff1673ffffffffffffffffffffffffffffffffffffffff16815260200190815260200160002060008773ffffffffffffffffffffffffffffffffffffffff1673ffffffffffffffffffffffffffffffffffffffff16815260200190815260200160002054604051610ab0919061172c565b60405180910390a36001905092915050565b6000600560008473ffffffffffffffffffffffffffffffffffffffff1673ffffffffffffffffffffffffffffffffffffffff16815260200190815260200160002060008373ffffffffffffffffffffffffffffffffffffffff1673ffffffffffffffffffffffffffffffffffffffff16815260200190815260200160002054905092915050565b60015481565b6000600660008573ffffffffffffffffffffffffffffffffffffffff1673ffffffffffffffffffffffffffffffffffffffff16815260200190815260200160002060009054906101000a900460ff1615610bde576040517f08c379a0000000000000000000000000000000000000000000000000000000008152600401610bd59061170c565b60405180910390fd5b600073ffffffffffffffffffffffffffffffffffffffff168373ffffffffffffffffffffffffffffffffffffffff161415610c4e576040517f08c379a0000000000000000000000000000000000000000000000000000000008152600401610c45906116ec565b60405180910390fd5b600860008573ffffffffffffffffffffffffffffffffffffffff1673ffffffffffffffffffffffffffffffffffffffff16815260200190815260200160002054821115610cd0576040517f08c379a0000000000000000000000000000000000000000000000000000000008152600401610cc79061168c565b60405180910390fd5b600460008573ffffffffffffffffffffffffffffffffffffffff1673ffffffffffffffffffffffffffffffffffffffff16815260200190815260200160002060009054906101000a900460ff16158015610d745750600460008473ffffffffffffffffffffffffffffffffffffffff1673ffffffffffffffffffffffffffffffffffffffff16815260200190815260200160002060009054906101000a900460ff16155b15610dca57600760009054906101000a900460ff1615610dc9576040517f08c379a0000000000000000000000000000000000000000000000000000000008152600401610dc09061166c565b60405180910390fd5b5b610e1c82600860008773ffffffffffffffffffffffffffffffffffffffff1673ffffffffffffffffffffffffffffffffffffffff1681526020019081526020016000205461101f90919063ffffffff16565b600860008673ffffffffffffffffffffffffffffffffffffffff1673ffffffffffffffffffffffffffffffffffffffff168152602001908152602001600020819055506000600460008673ffffffffffffffffffffffffffffffffffffffff1673ffffffffffffffffffffffffffffffffffffffff16815260200190815260200160002060009054906101000a900460ff1680610f025750600460008573ffffffffffffffffffffffffffffffffffffffff1673ffffffffffffffffffffffffffffffffffffffff16815260200190815260200160002060009054906101000a900460ff165b610f1557610f10858461108e565b610f17565b825b9050610f6b81600860008773ffffffffffffffffffffffffffffffffffffffff1673ffffffffffffffffffffffffffffffffffffffff1681526020019081526020016000205461107890919063ffffffff16565b600860008673ffffffffffffffffffffffffffffffffffffffff1673ffffffffffffffffffffffffffffffffffffffff168152602001908152602001600020819055508373ffffffffffffffffffffffffffffffffffffffff168573ffffffffffffffffffffffffffffffffffffffff167fddf252ad1be2c89b69c2b068fc378daa952ba7f163c4a11628f55a4df523b3ef8360405161100b919061172c565b60405180910390a360019150509392505050565b600082821115611064576040517f08c379a000000000000000000000000000000000000000000000000000000000815260040161105b906116ac565b60405180910390fd5b81836110709190611839565b905092915050565b600081836110869190611758565b905092915050565b6000806000905060008060015411156110cc576110c960646110bb6001548761139f90919063ffffffff16565b6113b590919063ffffffff16565b90505b600080541115611101576110fe60646110f06000548761139f90919063ffffffff16565b6113b590919063ffffffff16565b91505b600082111561126b5761117e8260086000600260009054906101000a900473ffffffffffffffffffffffffffffffffffffffff1673ffffffffffffffffffffffffffffffffffffffff1673ffffffffffffffffffffffffffffffffffffffff1681526020019081526020016000205461107890919063ffffffff16565b60086000600260009054906101000a900473ffffffffffffffffffffffffffffffffffffffff1673ffffffffffffffffffffffffffffffffffffffff1673ffffffffffffffffffffffffffffffffffffffff16815260200190815260200160002081905550600260009054906101000a900473ffffffffffffffffffffffffffffffffffffffff1673ffffffffffffffffffffffffffffffffffffffff168573ffffffffffffffffffffffffffffffffffffffff167fddf252ad1be2c89b69c2b068fc378daa952ba7f163c4a11628f55a4df523b3ef84604051611262919061172c565b60405180910390a35b6000811115611370576112c681600860008073ffffffffffffffffffffffffffffffffffffffff1673ffffffffffffffffffffffffffffffffffffffff1681526020019081526020016000205461107890919063ffffffff16565b600860008073ffffffffffffffffffffffffffffffffffffffff1673ffffffffffffffffffffffffffffffffffffffff16815260200190815260200160002081905550600073ffffffffffffffffffffffffffffffffffffffff168573ffffffffffffffffffffffffffffffffffffffff167fddf252ad1be2c89b69c2b068fc378daa952ba7f163c4a11628f55a4df523b3ef83604051611367919061172c565b60405180910390a35b611395611386828461107890919063ffffffff16565b8561101f90919063ffffffff16565b9250505092915050565b600081836113ad91906117df565b905092915050565b60008082116113f9576040517f08c379a00000000000000000000000000000000000000000000000000000000081526004016113f0906116cc565b60405180910390fd5b818361140591906117ae565b905092915050565b60008135905061141c81611a80565b92915050565b60008135905061143181611a97565b92915050565b60006020828403121561144d5761144c611913565b5b600061145b8482850161140d565b91505092915050565b6000806040838503121561147b5761147a611913565b5b60006114898582860161140d565b925050602061149a8582860161140d565b9150509250929050565b6000806000606084860312156114bd576114bc611913565b5b60006114cb8682870161140d565b93505060206114dc8682870161140d565b92505060406114ed86828701611422565b9150509250925092565b6000806040838503121561150e5761150d611913565b5b600061151c8582860161140d565b925050602061152d85828601611422565b9150509250929050565b6115408161186d565b82525050565b61154f8161187f565b82525050565b6000611562600983611747565b915061156d82611918565b602082019050919050565b6000611585602e83611747565b915061159082611941565b604082019050919050565b60006115a8601e83611747565b91506115b382611990565b602082019050919050565b60006115cb601a83611747565b91506115d6826119b9565b602082019050919050565b60006115ee602b83611747565b91506115f9826119e2565b604082019050919050565b6000611611602483611747565b915061161c82611a31565b604082019050919050565b611630816118ab565b82525050565b600060208201905061164b6000830184611537565b92915050565b60006020820190506116666000830184611546565b92915050565b6000602082019050818103600083015261168581611555565b9050919050565b600060208201905081810360008301526116a581611578565b9050919050565b600060208201905081810360008301526116c58161159b565b9050919050565b600060208201905081810360008301526116e5816115be565b9050919050565b60006020820190508181036000830152611705816115e1565b9050919050565b6000602082019050818103600083015261172581611604565b9050919050565b60006020820190506117416000830184611627565b92915050565b600082825260208201905092915050565b6000611763826118ab565b915061176e836118ab565b9250827fffffffffffffffffffffffffffffffffffffffffffffffffffffffffffffffff038211156117a3576117a26118b5565b5b828201905092915050565b60006117b9826118ab565b91506117c4836118ab565b9250826117d4576117d36118e4565b5b828204905092915050565b60006117ea826118ab565b91506117f5836118ab565b9250817fffffffffffffffffffffffffffffffffffffffffffffffffffffffffffffffff048311821515161561182e5761182d6118b5565b5b828202905092915050565b6000611844826118ab565b915061184f836118ab565b925082821015611862576118616118b5565b5b828203905092915050565b60006118788261188b565b9050919050565b60008115159050919050565b600073ffffffffffffffffffffffffffffffffffffffff82169050919050565b6000819050919050565b7f4e487b7100000000000000000000000000000000000000000000000000000000600052601160045260246000fd5b7f4e487b7100000000000000000000000000000000000000000000000000000000600052601260045260246000fd5b600080fd5b7f6e6f742073746172740000000000000000000000000000000000000000000000600082015250565b7f5374616e64617264546f6b656e3a207472616e7366657220616d6f756e74206560008201527f7863656564732062616c616e6365000000000000000000000000000000000000602082015250565b7f536166654d6174683a207375627472616374696f6e206f766572666c6f770000600082015250565b7f536166654d6174683a206469766973696f6e206279207a65726f000000000000600082015250565b7f5374616e64617264546f6b656e3a207472616e7366657220746f20746865207a60008201527f65726f2061646472657373000000000000000000000000000000000000000000602082015250565b7f5374616e64617264546f6b656e3a2073656e64657220697320626c61636b6c6960008201527f7374656400000000000000000000000000000000000000000000000000000000602082015250565b611a898161186d565b8114611a9457600080fd5b50565b611aa0816118ab565b8114611aab57600080fd5b5056fea264697066735822122074fb182ac57ec55bb19fd8b315b9ac28af182f37ad3a7718d32e0ccaa9e3299f64736f6c63430008070033",
  "linkReferences": {},
  "deployedLinkReferences": {}
}