{
  "_format": "hh-sol-artifact-1",
  "contractName": "Vault",
  "sourceName": "contracts/Vault.sol",
  "abi": [
    {
      "inputs": [
        {
          "internalType": "bytes32",
          "name": "password",
          "type": "bytes32"
        }
      ],
      "stateMutability": "nonpayable",
      "type": "constructor"
    },
    {
      "inputs": [],
      "name": "s_locked",
      "outputs": [
        {
          "internalType": "bool",
          "name": "",
          "type": "bool"
        }
      ],
      "stateMutability": "view",
      "type": "function"
    },
    {
      "inputs": [
        {
          "internalType": "bytes32",
          "name": "password",
          "type": "bytes32"
        }
      ],
      "name": "unlock",
      "outputs": [],
      "stateMutability": "nonpayable",
      "type": "function"
    }
  ],
  "bytecode": "0x608060405234801561001057600080fd5b506040516102523803806102528339818101604052810190610032919061006e565b60016000806101000a81548160ff02191690831515021790555080600181905550506100c1565b600081519050610068816100aa565b92915050565b600060208284031215610084576100836100a5565b5b600061009284828501610059565b91505092915050565b6000819050919050565b600080fd5b6100b38161009b565b81146100be57600080fd5b50565b610182806100d06000396000f3fe608060405234801561001057600080fd5b50600436106100365760003560e01c8063b54378261461003b578063ec9b5b3a14610059575b600080fd5b610043610075565b60405161005091906100ff565b60405180910390f35b610073600480360381019061006e91906100c3565b610086565b005b60008054906101000a900460ff1681565b8060015414156100ab5760008060006101000a81548160ff0219169083151502179055505b50565b6000813590506100bd81610135565b92915050565b6000602082840312156100d9576100d8610130565b5b60006100e7848285016100ae565b91505092915050565b6100f98161011a565b82525050565b600060208201905061011460008301846100f0565b92915050565b60008115159050919050565b6000819050919050565b600080fd5b61013e81610126565b811461014957600080fd5b5056fea2646970667358221220165f595520fd0ec1af52714af2649e673a0164825d13d1ad453efb6058282d4d64736f6c63430008070033",
  "linkReferences": {},
  "deployedLinkReferences": {}
}