{
  "_format": "hh-sol-artifact-1",
  "contractName": "LiquidityPoolAsOracle",
  "sourceName": "contracts/LiquidityPoolAsOracle.sol",
  "abi": [
    {
      "inputs": [
        {
          "internalType": "address",
          "name": "token1",
          "type": "address"
        },
        {
          "internalType": "address",
          "name": "token2",
          "type": "address"
        }
      ],
      "stateMutability": "nonpayable",
      "type": "constructor"
    },
    {
      "inputs": [
        {
          "internalType": "address",
          "name": "tokenAddress",
          "type": "address"
        },
        {
          "internalType": "uint256",
          "name": "amount",
          "type": "uint256"
        }
      ],
      "name": "addLiquidity",
      "outputs": [],
      "stateMutability": "nonpayable",
      "type": "function"
    },
    {
      "inputs": [
        {
          "internalType": "address",
          "name": "from",
          "type": "address"
        },
        {
          "internalType": "address",
          "name": "to",
          "type": "address"
        },
        {
          "internalType": "uint256",
          "name": "amount",
          "type": "uint256"
        }
      ],
      "name": "getSwapPrice",
      "outputs": [
        {
          "internalType": "uint256",
          "name": "",
          "type": "uint256"
        }
      ],
      "stateMutability": "view",
      "type": "function"
    },
    {
      "inputs": [],
      "name": "s_token1",
      "outputs": [
        {
          "internalType": "address",
          "name": "",
          "type": "address"
        }
      ],
      "stateMutability": "view",
      "type": "function"
    },
    {
      "inputs": [],
      "name": "s_token2",
      "outputs": [
        {
          "internalType": "address",
          "name": "",
          "type": "address"
        }
      ],
      "stateMutability": "view",
      "type": "function"
    },
    {
      "inputs": [
        {
          "internalType": "address",
          "name": "from",
          "type": "address"
        },
        {
          "internalType": "address",
          "name": "to",
          "type": "address"
        },
        {
          "internalType": "uint256",
          "name": "amount",
          "type": "uint256"
        }
      ],
      "name": "swap",
      "outputs": [],
      "stateMutability": "nonpayable",
      "type": "function"
    }
  ],
  "bytecode": "0x60806040523480156200001157600080fd5b506040516200102d3803806200102d8339818101604052810190620000379190620001bd565b600073ffffffffffffffffffffffffffffffffffffffff168273ffffffffffffffffffffffffffffffffffffffff161415620000aa576040517f08c379a0000000000000000000000000000000000000000000000000000000008152600401620000a1906200022b565b60405180910390fd5b600073ffffffffffffffffffffffffffffffffffffffff168173ffffffffffffffffffffffffffffffffffffffff1614156200011d576040517f08c379a000000000000000000000000000000000000000000000000000000000815260040162000114906200022b565b60405180910390fd5b816000806101000a81548173ffffffffffffffffffffffffffffffffffffffff021916908373ffffffffffffffffffffffffffffffffffffffff16021790555080600160006101000a81548173ffffffffffffffffffffffffffffffffffffffff021916908373ffffffffffffffffffffffffffffffffffffffff1602179055505050620002da565b600081519050620001b781620002c0565b92915050565b60008060408385031215620001d757620001d662000292565b5b6000620001e785828601620001a6565b9250506020620001fa85828601620001a6565b9150509250929050565b6000620002136013836200024d565b9150620002208262000297565b602082019050919050565b60006020820190508181036000830152620002468162000204565b9050919050565b600082825260208201905092915050565b60006200026b8262000272565b9050919050565b600073ffffffffffffffffffffffffffffffffffffffff82169050919050565b600080fd5b7f416464726573732063616e6e6f74206265203000000000000000000000000000600082015250565b620002cb816200025e565b8114620002d757600080fd5b50565b610d4380620002ea6000396000f3fe608060405234801561001057600080fd5b50600436106100575760003560e01c806302314f1f1461005c57806334f227641461007a5780635668870014610098578063bfd7e00d146100b4578063df791e50146100e4575b600080fd5b610064610100565b604051610071919061097e565b60405180910390f35b610082610126565b60405161008f919061097e565b60405180910390f35b6100b260048036038101906100ad9190610817565b61014a565b005b6100ce60048036038101906100c991906107c4565b610222565b6040516100db9190610a99565b60405180910390f35b6100fe60048036038101906100f991906107c4565b610354565b005b600160009054906101000a900473ffffffffffffffffffffffffffffffffffffffff1681565b60008054906101000a900473ffffffffffffffffffffffffffffffffffffffff1681565b60008273ffffffffffffffffffffffffffffffffffffffff166323b872dd3330856040518463ffffffff1660e01b815260040161018993929190610999565b602060405180830381600087803b1580156101a357600080fd5b505af11580156101b7573d6000803e3d6000fd5b505050506040513d601f19601f820116820180604052508101906101db9190610857565b90508061021d576040517f08c379a000000000000000000000000000000000000000000000000000000000815260040161021490610a39565b60405180910390fd5b505050565b60008373ffffffffffffffffffffffffffffffffffffffff166370a08231306040518263ffffffff1660e01b815260040161025d919061097e565b60206040518083038186803b15801561027557600080fd5b505afa158015610289573d6000803e3d6000fd5b505050506040513d601f19601f820116820180604052508101906102ad9190610884565b8373ffffffffffffffffffffffffffffffffffffffff166370a08231306040518263ffffffff1660e01b81526004016102e6919061097e565b60206040518083038186803b1580156102fe57600080fd5b505afa158015610312573d6000803e3d6000fd5b505050506040513d601f19601f820116820180604052508101906103369190610884565b836103419190610af6565b61034b9190610ac5565b90509392505050565b60008054906101000a900473ffffffffffffffffffffffffffffffffffffffff1673ffffffffffffffffffffffffffffffffffffffff168373ffffffffffffffffffffffffffffffffffffffff161480156103fc5750600160009054906101000a900473ffffffffffffffffffffffffffffffffffffffff1673ffffffffffffffffffffffffffffffffffffffff168273ffffffffffffffffffffffffffffffffffffffff16145b806104ab5750600160009054906101000a900473ffffffffffffffffffffffffffffffffffffffff1673ffffffffffffffffffffffffffffffffffffffff168373ffffffffffffffffffffffffffffffffffffffff161480156104aa575060008054906101000a900473ffffffffffffffffffffffffffffffffffffffff1673ffffffffffffffffffffffffffffffffffffffff168273ffffffffffffffffffffffffffffffffffffffff16145b5b6104ea576040517f08c379a00000000000000000000000000000000000000000000000000000000081526004016104e1906109f9565b60405180910390fd5b808373ffffffffffffffffffffffffffffffffffffffff166370a08231336040518263ffffffff1660e01b8152600401610524919061097e565b60206040518083038186803b15801561053c57600080fd5b505afa158015610550573d6000803e3d6000fd5b505050506040513d601f19601f820116820180604052508101906105749190610884565b10156105b5576040517f08c379a00000000000000000000000000000000000000000000000000000000081526004016105ac90610a19565b60405180910390fd5b60006105c2848484610222565b905060008473ffffffffffffffffffffffffffffffffffffffff166323b872dd3330866040518463ffffffff1660e01b815260040161060393929190610999565b602060405180830381600087803b15801561061d57600080fd5b505af1158015610631573d6000803e3d6000fd5b505050506040513d601f19601f820116820180604052508101906106559190610857565b905080610697576040517f08c379a000000000000000000000000000000000000000000000000000000000815260040161068e90610a79565b60405180910390fd5b60008473ffffffffffffffffffffffffffffffffffffffff1663a9059cbb33856040518363ffffffff1660e01b81526004016106d49291906109d0565b602060405180830381600087803b1580156106ee57600080fd5b505af1158015610702573d6000803e3d6000fd5b505050506040513d601f19601f820116820180604052508101906107269190610857565b905080610768576040517f08c379a000000000000000000000000000000000000000000000000000000000815260040161075f90610a59565b60405180910390fd5b505050505050565b60008135905061077f81610cc8565b92915050565b60008151905061079481610cdf565b92915050565b6000813590506107a981610cf6565b92915050565b6000815190506107be81610cf6565b92915050565b6000806000606084860312156107dd576107dc610bf6565b5b60006107eb86828701610770565b93505060206107fc86828701610770565b925050604061080d8682870161079a565b9150509250925092565b6000806040838503121561082e5761082d610bf6565b5b600061083c85828601610770565b925050602061084d8582860161079a565b9150509250929050565b60006020828403121561086d5761086c610bf6565b5b600061087b84828501610785565b91505092915050565b60006020828403121561089a57610899610bf6565b5b60006108a8848285016107af565b91505092915050565b6108ba81610b50565b82525050565b60006108cd600e83610ab4565b91506108d882610bfb565b602082019050919050565b60006108f0601283610ab4565b91506108fb82610c24565b602082019050919050565b6000610913601783610ab4565b915061091e82610c4d565b602082019050919050565b6000610936601583610ab4565b915061094182610c76565b602082019050919050565b6000610959601783610ab4565b915061096482610c9f565b602082019050919050565b61097881610b8e565b82525050565b600060208201905061099360008301846108b1565b92915050565b60006060820190506109ae60008301866108b1565b6109bb60208301856108b1565b6109c8604083018461096f565b949350505050565b60006040820190506109e560008301856108b1565b6109f2602083018461096f565b9392505050565b60006020820190508181036000830152610a12816108c0565b9050919050565b60006020820190508181036000830152610a32816108e3565b9050919050565b60006020820190508181036000830152610a5281610906565b9050919050565b60006020820190508181036000830152610a7281610929565b9050919050565b60006020820190508181036000830152610a928161094c565b9050919050565b6000602082019050610aae600083018461096f565b92915050565b600082825260208201905092915050565b6000610ad082610b8e565b9150610adb83610b8e565b925082610aeb57610aea610bc7565b5b828204905092915050565b6000610b0182610b8e565b9150610b0c83610b8e565b9250817fffffffffffffffffffffffffffffffffffffffffffffffffffffffffffffffff0483118215151615610b4557610b44610b98565b5b828202905092915050565b6000610b5b82610b6e565b9050919050565b60008115159050919050565b600073ffffffffffffffffffffffffffffffffffffffff82169050919050565b6000819050919050565b7f4e487b7100000000000000000000000000000000000000000000000000000000600052601160045260246000fd5b7f4e487b7100000000000000000000000000000000000000000000000000000000600052601260045260246000fd5b600080fd5b7f496e76616c696420746f6b656e73000000000000000000000000000000000000600082015250565b7f4e6f7420656e6f75676820746f20737761700000000000000000000000000000600082015250565b7f4661696c656420746f20616464206c6971756964697479000000000000000000600082015250565b7f4661696c656420746f207472616e7366657220746f0000000000000000000000600082015250565b7f4661696c656420746f207472616e736665722066726f6d000000000000000000600082015250565b610cd181610b50565b8114610cdc57600080fd5b50565b610ce881610b62565b8114610cf357600080fd5b50565b610cff81610b8e565b8114610d0a57600080fd5b5056fea264697066735822122079a9e8ced74298e673115d970e93318b412ec8dedc2e385cbb94050f65fffcd864736f6c63430008070033",
  "linkReferences": {},
  "deployedLinkReferences": {}
}